:030000000200B843
:0C00B800787FE4F6D8FD75810702000394
:1000030090E6007412F0000000A374CBF00000002F
:1000130090E60B7401F000000090E61274A2F00069
:10002300000090E61474E0F0000000E490E613F0A2
:1000330000000090E615F000000090E6047480F0E4
:100043000000007482F00000007484F0000000746B
:1000530086F00000007488F0000000E4F000000067
:1000630090E61A740DF000000090E6187401F00099
:1000730000007411F0000000E490E609F0000000B5
:1000830090E60274E0F0000000A37408F0000000A2
:1000930090E6247402F0000000E4A3F00000009056
:1000A300E6347480F0000000E4A3F090E67074403E
:0500B300F00000002236
:00000001FF
